:020000040800F2
:100000006816002099020008F53B000871380008C6
:1000100000000000000000000000000000000000E0
:10002000000000000000000000000000B33D0008D8
:100030000000000000000000F73B0008B53D00088C
:10004000AB020008AB020008AB020008AB020008DC
:10005000AB020008AB020008AB020008AB020008CC
:1000600000000000AB020008AB020008AB02000871
:10007000AB020008AB020008AB020008AB020008AC
:10008000AB020008AB020008AB020008AB0200089C
:1000900000000000AB020008AB020008AB02000841
:1000A000AB020008913D0008AB020008D94A0008E5
:1000B000E94A0008AB020008000000000000000050
:1000C00000F002F800F0BDF80CA030C80838241881
:1000D0002D18A246671EAB4654465D46AC4201D180
:1000E00000F0AFF87E460F3E0FCCB64601263342F5
:1000F00000D0FB1AA246AB4633431847E85F000026
:1001000008600000103A02D378C878C1FAD85207C4
:1001100001D330C830C101D504680C6070470000BD
:100120000023002400250026103A01D378C1FBD813
:10013000520700D330C100D50B60704710B56E294F
:1001400002D100F0A3FC10BD702902D100F0E5FD42
:1001500010BD662902D105F041FE10BD652902D10E
:1001600005F03CFE10BD672902D105F037FE10BD39
:10017000612902D105F03AFE10BD03681B0A01D3C4
:1001800080231943692902D100F04AFC10BD64297B
:1001900002D100F045FC10BD752902D100F040FCF1
:1001A00010BD6F2902D100F063FD10BD782902D186
:1001B00000F0A0FD10BDE92902D100F0FFFC10BD48
:1001C000E42902D100F0FAFC10BDF52902D100F0BB
:1001D000F5FC10BDEF2902D100F056FD10BDF82945
:1001E00002D100F095FD10BD0368DB0901D3802327
:1001F0001943632902D101F0C8FA10BD732902D155
:1002000001F0CBFA10BDE32902D101F0D5FA10BDFF
:10021000F32902D101F0D8FA10BD002010BD1FB59E
:1002200001F0F2FC04000020002105F0C1FD401C9B
:1002300060600020002105F0A5FDE0601FBD10B545
:1002400010BD01F0B9FC1146FFF7E9FF05F0E4F934
:1002500001F0DAFF03B4FFF7F2FF03BC02F022F86B
:1002600070B505460C46164602E00FCC0FC5103E91
:10027000102EFAD2082E02D303CC03C5083E042E5A
:1002800007D301CC01C5361F03E021782970641C17
:100290006D1C761EF9D270BD07488047074800479D
:1002A000FEE7FEE7FEE7FEE7FEE7FEE70448054956
:1002B000054A064B704700002D3E0008C1000008AB
:1002C000680C002068160020680E0020680E0020D0
:1002D000FEB5054610460C46184373D0AE468C4614
:1002E0000020AD1A01469C4167D3664600270124D1
:1002F0003D46B61A9D4102D313463A46212465462F
:1003000076462F04360C3E432D0CB61A9D4104D37D
:10031000150C1B042B4312041034654676462F0639
:10032000360A3E432D0AB61A9D4104D3150E1B0210
:100330002B4312020834654676462F0736093E43A2
:100340002D09B61A9D4104D3150F1B012B43120131
:10035000241D65467646AF07B6083E43AD08B61A7B
:100360009D4104D3950F9B002B439200A41C65462E
:100370007646EF0776083E436D08B61A9D411AD3BC
:1003800092185B41641C16E00018764665464941A8
:10039000B71A9D410191009009D36046B11A984166
:1003A0008E468446009801990025401C6941DD076E
:1003B00052082A435B08641EE6D57246634603B0C2
:1003C000F0BDFFE700200146C046C0462A4623464E
:1003D000F5E700007CB51D4616460C00009001D0E4
:1003E0000019401E084B7B442A466946019030465E
:1003F00000F065FB002C054603D06946002000F0A4
:1004000071FB28467CBD0000050700000FB400B555
:100410008DB010A909900B900020C04300910A9064
:1004200000200C90074878440690074878446A46B4
:1004300007900F9909A800F057FD0DB008BC04B053
:1004400018470000E30A0000FD0A0000FFB51D4642
:100450000027FF4383B05C68002001909E68A96973
:1004600004987F1C88470090296A88470028F6D1A5
:100470000098401C0CD0032040028443002E19DD5C
:10048000600614D500982B2809D02D280FD103E041
:100490000020C04307B0F0BD012080020443A969D9
:1004A00004987F1C8847761E002E009002DD00987D
:1004B000302803D00598002825D035E00120A9690F
:1004C00040020443761E04987F1C8847002E00904B
:1004D00003DD782805D0582803D00598002810D0CF
:1004E00022E00598002801D010281DD10120A9691B
:1004F00040028443761E04987F1C88470090102099
:1005000002E0082000E00A2005900DE00121059A94
:1005100049020C430199761E514308180190A969BC
:1005200004987F1C88470090002E05DD05990098EF
:1005300000F0C4FC0028E9DAE96904988847A005BE
:1005400002D40120C043A5E7E00722D1600611D5FF
:100550006005019800D5404229680A1D2A60096893
:10056000220501D5087014E0220701D5088010E0AB
:1005700008600EE02868011D29600068210502D589
:100580000199017005E02107019901D5018000E082
:10059000016038467EE730B505460B462A461C7892
:1005A0001078521C5B1C002801D0A042F7D0002C10
:1005B00003D0002802D06D1CEFE7284630BD0000B4
:1005C00030B5441C03E00178401C00290DD08107A0
:1005D000F9D10B4BDD0104C8D11A91432940FAD05F
:1005E000001B0A0603D0C01E30BD001B30BD0A042C
:1005F00001D0801E30BD0902FCD0401E30BD00007D
:10060000010101010346F0B50B439B072DD1244D99
:10061000EF01042A29D308C810C95E1B9E43121F8C
:100620003E4017D0D8B2E1B2401A3106014310D192
:1006300098B2A1B2401A310401430AD11802210232
:10064000000A090A401A3102014302D1180E210E94
:10065000401AF0BDA342DCD018BA21BA884201D9B1
:100660000120F0BD0020C043F0BD002A01D10020D0
:10067000F0BD03780C78401C491C002B0DD0A34220
:100680000BD1521E09D003780C78401C491C002B5A
:1006900003D0A34201D1521EEBD1181BF0BD0000C4
:1006A00001010101F8B5042A2CD3830712D00B787D
:1006B000491C0370401C521E83070BD00B78491C49
:1006C0000370401C521E830704D00B78491C037032
:1006D000401C521E8B079B0F05D0C91ADF00202338
:1006E000DE1B08C90AE0FFF7BBFDF8BD1D4608C9BF
:1006F000FD401C46B4402C4310C0121F042AF5D202
:10070000F308C91A521EF0D40B78491C0370401C20
:10071000521EEAD40B78491C0370401C012AE4D411
:1007200009780170F8BD431A70B593421BD289183D
:10073000801804E0491E401E0B78521E0370930778
:10074000F8D106E01039103878C9103978C010385F
:10075000103A102AF6D203E0091F001F0B6803604D
:10076000121FF9D570BDFFF77BFD70BDF8B50646C9
:1007700014460843800707D0751AA54219D20819F4
:10078000102D13D2311907E03046FFF7CCFFF8BD2A
:10079000401E491E02780A70641EF9D2F8BD471B3C
:1007A0002A463946FFF77EFF641B3846A542F6D33A
:1007B000011B22463046FFF775FFF8BD01E004C07B
:1007C000091F0429FBD28B0701D50280801CC907B1
:1007D00000D00270704700290BD0C30702D002700E
:1007E000401C491E022904D3830702D50280801CC5
:1007F000891EE3E70022EEE70022DFE7002203097B
:100800008B422CD3030A8B4211D300239C464EE02B
:1008100003460B433CD4002243088B4231D30309E7
:100820008B421CD3030A8B4201D394463FE0C30999
:100830008B4201D3CB01C01A524183098B4201D3B1
:100840008B01C01A524143098B4201D34B01C01A9C
:10085000524103098B4201D30B01C01A5241C30814
:100860008B4201D3CB00C01A524183088B4201D383
:100870008B00C01A524143088B4201D34B00C01A6F
:100880005241411A00D201465241104670475DE084
:10089000CA0F00D04942031000D340425340002207
:1008A0009C4603098B422DD3030A8B4212D3FC22B0
:1008B000890112BA030A8B420CD3890192118B422F
:1008C00008D3890192118B4204D389013AD0921145
:1008D00000E08909C3098B4201D3CB01C01A524100
:1008E00083098B4201D38B01C01A524143098B42C9
:1008F00001D34B01C01A524103098B4201D30B01B2
:10090000C01A5241C3088B4201D3CB00C01A5241D6
:1009100083088B4201D38B00C01A5241D9D24308BD
:100920008B4201D34B00C01A5241411A00D20146FA
:10093000634652415B10104601D34042002B00D564
:100940004942704763465B1000D3404201B5002026
:10095000C046C04602BD70477047704770B5044638
:1009600085690068C10601D5302600E02026C00751
:1009700007D070BD62683046A1689047206A401C6D
:1009800020626D1EF6D570BD70B50446856900788D
:10099000C00707D170BD6268A16820209047206A17
:1009A000401C20626D1EF6D570BD09684A0501D550
:1009B00040B27047C905FCD500B2704709684A05C6
:1009C00001D5C0B27047C905FCD580B2704770B57B
:1009D0000C460546012A05D02878800600D5EA692C
:1009E000002302E0012305E05B1C934202D2E05C9D
:1009F0000028F9D1A869E618C01AA861286AC018A9
:100A000028622846FFF7AAFF04E06A682078A968F0
:100A1000641C9047B442F8D32846FFF7B5FF70BD79
:100A2000F7B5002575291068009914A611D0FFF7B5
:100A3000BCFF002802DA404211A608E000990968CC
:100A40008A0701D50FA602E0490704D50EA60125A5
:100A500001E0FFF7B3FF009F0024243704E001F01A
:100A600097F830313955641C0028F8D12B463246AE
:100A70002146009800F0B2FAFEBD00000000000020
:100A80002D0000002B00000020000000116802680B
:100A9000006A530501D5087009E0D30501D5088027
:100AA00005E0130602D5C21705C100E00860012069
:100AB0007047000001694A1C02610878704700B560
:100AC0008FB002910021059105490193794403916A
:100AD00011460490684600F02DF90FB000BD0000EB
:100AE000E5FFFFFF0A681070521C0A6070474B68F0
:100AF0000A689A4202D2531C0B60107070470000C3
:100B0000F7B50446154686B02B487844002703C83D
:100B10003E460090019111E007986A467100415AE3
:100B200002A801F015F8411C07D02178890603D5E9
:100B3000E269391891420ED83F18761C2078800659
:100B400002D5E069B84206DDAE42E5DB07987100E8
:100B5000405A0028E0D1A069C01BA0612046FFF7E1
:100B6000FDFE154878445A3803C8009000200191D2
:100B700016E041006A460798415A02A800F0E8FFD3
:100B80000590401C0AD0002505E0626802A8A16813
:100B9000405D90476D1C05988542F6D30498401C33
:100BA000B0420490E5DB206AC01920622046FFF7BE
:100BB000EBFE09B0F0BD0000DA540000F7B5D21D1D
:100BC0000025D20815A6D200F52905CA11D0002AA1
:100BD00005DA00214042914111A60A4608E0009939
:100BE00009688B0701D50FA602E0490701D50EA6BB
:100BF00001251146009F0024243704E000F0A8F9E5
:100C000030323A55641C02460A43F7D12B4632462D
:100C10002146009800F0E2F9FEBD0000000000004F
:100C20002D0000002B0000002000000070B50446DD
:100C30000021243408E05507D2086D0F3035655483
:100C40005D072A43DB08491C15461D43F3D10468A0
:100C5000002310A2250708D520252C400C4304D0E2
:100C6000C46901230CA2641EC46100F0B7F970BD11
:100C700010B5044621461068FFF7A0FE0023024687
:100C80002046FFF7D3FF10BDD21DD108C9000CC903
:100C9000CCE700000000000030000000F8B50F466F
:100CA0000188090502D5224C7C4402E0204C7C449A
:100CB0000E3405460021243508E016071209360FC8
:100CC000A65D6E541E0732431B09491C16461E437F
:100CD000F3D1224604780023240705D5702F06D0CF
:100CE000002901D00223113200F078F9F8BD012368
:100CF0001032F9E770B504460D4621461068FFF73B
:100D00005DFE0023024629462046FFF7C7FF70BD5F
:100D1000D21DD308DB000CCBC0E730B4036820241D
:100D20001268234303600823C36130BC0023B5E786
:100D300044530000F3B50446002081B020622046F1
:100D4000E1688847002872D0252802D06268A1682F
:100D5000ABE0594F00267F442046E16888472028B1
:100D6000054608DB312D06D2781920380078002896
:100D700001D00643F0E7B00701D5042086430020E8
:100D8000E0610746A0612A2D0AD0284603F004FF3F
:100D9000002827D0B8000019303D0090856119E087
:100DA0000298BA00121902C8916102902046E168C7
:100DB0008847012F054617D1E06900281FDA202057
:100DC00086431CE000980A21806948430099401935
:100DD000303888612046E1688847054603F0DCFE2C
:100DE0000028EFD1012F0AD02E2D08D12046E1682E
:100DF00088470546202006437F1C022FC3DBA069DD
:100E0000002803DA4042A06101200643F00701D028
:100E1000102086436C2D0BD0682D09D04C2D3CD072
:100E20006A2D38D0742D38D07A2D36D016E040E0B7
:100E3000E1682F4620468847B842054609D16C2F05
:100E400029D001208002E1680643204688470546F4
:100E500004E06C2F1DD0FF2001300643002D28D068
:100E600028464138192803D80120C00206432035FE
:100E7000204626602946029A1646FFF75FF90028A9
:100E800010D001280BD0F61DF008C00008300290E9
:100E900055E74020E1E78020D5E70020D3E7361D65
:100EA00002964CE762682846A1689047206A401C79
:100EB00044E7206AFEBD0000BE5200003A2800D27E
:100EC0003038202302469A43412A01D3104637384E
:100ED000884201D30020C0437047000002685118C7
:100EE000137801601846704710B5D1600549794400
:100EF000516105497944116200211161114600F0E8
:100F000067FC10BDEBFFFFFFD30000004268002A22
:100F100008D001680B78491C002B03D0521E06C074
:100F2000184670470121C160881E70474268002A38
:100F30000BD0C3680168002B07D183688B4204D0B3
:100F4000491E521C06C0002070470020C043704755
:100F50000B4670B5024689078008084319469D086C
:100F6000141AA94125090807054308092C19484105
:100F7000250A01060D43010A2C194141200C0D04DC
:100F800028430D0C00194D41002140194D41C00866
:100F900069070843E908840F8D002543840024185D
:100FA0004D4124196D41121BAB4107E00925ED436A
:100FB0002C11521963410024401C61411C460A2532
:100FC0000026551BB441F1D270BD10B5044600F0A7
:100FD00013FE0068005DC007C00F10BDFFB50446DA
:100FE0000D4681B0243000902168880604D5102277
:100FF000E0699143216000E00120A84201DD471B28
:1010000000E000270498A1697A191018081AA06155
:101010002078C00602D42046FFF7A0FC002608E096
:1010200003986268A168805D9047206A401C761C26
:10103000206204988642F3DB2078C0060AD5204659
:10104000FFF78CFC06E06268A16830209047206AB8
:10105000401C206238467F1E0028F4DC07E0009820
:101060006268A168405D9047206A401C2062284663
:101070006D1E0028F3DC2046FFF786FC2078000672
:1010800002D5022005B0F0BD0120FBE77047FFB597
:101090000C461E468FB003CA089009914F007D0D83
:1010A00000D16D1E002108460020C0460321099A88
:1010B00089050840002A03DA8200801840080840A9
:1010C000800D01280A9002DD0020C0430A90089894
:1010D00007430DD0EF48F0492818484307141898E3
:1010E00000281DD07542291E1DDD0A9842421BE0D2
:1010F0001898012802D00020302104E00020F2439B
:1011000005E02154401CB042FBDB30460022189B16
:10111000002121540F998B600A60486013B0F0BD24
:10112000BD1B6D1CDFE70A9A002900DA69420BA893
:1011300000F0B2FD0BAB07CB03AB07C308990998CE
:1011400000F00EFE6B4607C30146D4480918002D77
:1011500000910ADDD14903980A9A4942401803A92F
:101160000390684601F021F807E003990A9A0818ED
:1011700003A90390684600F0EEFF6B4607C3000426
:10118000000C03D00020C043410800E01046189A2C
:10119000002A03D00022009215461EE0751E05D4D9
:1011A000FFF7D6FE303262556D1EF9D50122084395
:1011B000079602D000227F1C04E02078302801D15D
:1011C00000227F1E002A069789D01EE0112D07DA23
:1011D000FFF7BEFE303262556D1C02460A43F5D160
:1011E000084303D00098002819D00EE00021681EA3
:1011F00005E0235C625C63542254401E491C81421A
:10120000F7DBA81B401E07950690079A1899002047
:10121000A0540F98079B069A81600CC07EE71126A8
:10122000002018905BE7D21DF0B50D460446D108AA
:1012300093B0C90003C90C900D9103F075FC0246F0
:101240000D98C00F01D02D2007E02068810701D53F
:101250002B2002E04007C00F4001032A0F9001D06D
:10126000072A05DB03462946204600F0D1FC0EE1A3
:101270002078800601D5E76900E006272846652D1D
:1012800004D0662814D0672D69D12DE00020112FDD
:10129000009001DB112300E07B1C0CAA03A910A81D
:1012A000FFF7F5FE1199002610987D1C0E9142E083
:1012B00001203B460CAAC0070B900120009003A917
:1012C00010A8FFF7E4FE119D12981099002600283F
:1012D0000E9501D1781C0D18781B02D446427D1C56
:1012E000761EE81B00903AE0012F00DA012700206B
:1012F000112F009001DD112300E03B460CAA03A949
:1013000010A8FFF7C4FE11993D46109800260E91D3
:10131000217809070BD40E99A94200DA0D4603A9DA
:10132000012D04DD4A19203AD27F302A06D0B84276
:1013300001DA011D04DA012100910FE06D1EEFE7D3
:10134000002802DC86192D1A03E0411CA94200DDA9
:101350000D46801B401C00900120C0070B90207898
:10136000000705D40098A84202DB0020C04300908B
:1013700069460020C8720B98012102AF0337C907E4
:10138000884225D0022010902B2011900B98002825
:101390000BDA40420B902D20119006E00B9800F0E4
:1013A000F7FB30317F1E0B9039701099481E0029D1
:1013B0001090F3DC0B980028F0D111987F1E387044
:1013C0002088000501D5452000E065207F1E38708B
:1013D00001A8C01BC01D0B900F98002800D0012051
:1013E00041190098C01709180B980818A169081A24
:1013F000401EA0612078C00602D42046FFF7AEFA56
:101400000F98002805D06268A1689047206A401CA8
:1014100020622078C00625D52046FFF79FFA21E0FC
:10142000002E07DB0E98B04204DD03A86268805DE1
:10143000A16802E06268A16830209047206A761CAB
:10144000401C20620098401E002800900AD100F045
:10145000DBFBC06862680168405CA1689047206A55
:10146000401C206228466D1E0028D9DC07E0626817
:101470003878A1687F1C9047206A401C20620B9935
:10148000481E00290B90F2DC2046FFF77DFA03206E
:1014900044E6000001FCFFFF104D0000E1DFFFFF0C
:1014A000D21DF0B504460D46D0088DB0C000466888
:1014B00007683146384603F037FB0246F00F01D08B
:1014C0002D2307E02068810701D52B2302E0400788
:1014D000C00F43016846002B037001D0012000E0DB
:1014E0000020032A0A9001D0072A04DB294620465F
:1014F00000F08EFB2BE12078800601D40D2500E062
:10150000E5697000400D0D2D01904BDA300D002182
:101510000B9008460020C046032189050840002E94
:1015200005DA82008018C20F10184010084080159C
:10153000012801DD0020C043A9000023182906D39B
:101540009C460A460123183A1B07D34003E00122B8
:101550001205CA4094460C31202902D33A4620395C
:1015600000E032468A40002802DD002A06D119E058
:10157000002817D10121C9078A4213D319466346AF
:101580007F185E41002806D10120C007824202D1A7
:10159000084687439E430B98310D814202D0019843
:1015A000401C01902088000502D57049794402E072
:1015B0006E49794419396B460A9830221A540A98B0
:1015C0000A7C401C1A54401C0A900198002801DC37
:1015D000302000E031201872019A0120002A02D048
:1015E000634BD21804E072003A4302D0604A521CA6
:1015F0000192002D02DC2278120703D56A462E20C4
:10160000507202200022864694460CE032033601D6
:10161000120F6D1E8B5C02AA13546246521C401CB2
:101620009446052A01DA002DF0DC002202AE08E023
:101630003B0F3F01CB5C521C6D1E3354401C082AEB
:1016400001DA002DF4DC2278920601D50FE0401E6D
:10165000704504DD3218203AD27F302AF7D00028B6
:1016600005DD3218203AD27F2E2A00D1401E002DEF
:1016700003DD3E223254401C6D1E497C31540199D9
:10168000401C002906DA2D21471C315401984042A4
:10169000019003E02B21471C315401987D21C900A2
:1016A000884206DBFFF7B4F83030F0557F1C01911B
:1016B00001E0642808DB01986421FFF7A9F83030C5
:1016C000F0557F1C019101E00A2806DB01980A21F0
:1016D000FFF79EF83030F0557F1C01980A21FFF784
:1016E00097F83031F1550A98A1697F1C7A191018C2
:1016F000081AA0612078C00602D42046FFF72EF910
:10170000216A6E460A980818206204E06268307800
:10171000A168761C90470A98401E0A90401CF5D19B
:101720002078C00602D52046FFF718F902AE09E07E
:101730003078761C3E280DD06268A1689047206AF8
:10174000401C20627F1EF3D22046FFF71DF90DB02A
:101750000320F0BD206A4019206203E06268A1689E
:10176000302090476D1EEDD3F8E700008C4A000052
:1017700001FCFFFF10B54369002B02D0C046C046F4
:1017800001E0FFF724F9012010BD12780146243151
:101790000A7000224A700122ECE711680022D2434D
:1017A000E8E710B54369002B02D0C046C04601E00F
:1017B000FFF7A6F9012010BD12880146243182846A
:1017C0000022C2840122ECE711680022D243E8E73C
:1017D000F3B50C468FB000200C90012000260E902F
:1017E00008460C3003906269039801219047050078
:1017F0002ED0252D2DD0216A8847002818D0626967
:10180000039801219047216A88470028F7D162692F
:10181000411E0398904700E0761CA1690F98884705
:10182000216A88470028F7D1E1690F988847DAE7ED
:10183000A1690F988847A842074601D1761CD2E7D4
:10184000E1690F9888477F1C02D10C98002877D057
:101850006BE16269039800273D46394690472A2884
:101860000CD16269039801219047012506E00A2105
:101870004F433F18303FEBD4102005436269039873
:1018800001219047014630390A2903D2AC498F42E1
:10189000DEDCECE7E90600D4AA4F6C280AD04C281D
:1018A00010D0682824D06A282ED074280CD07A282A
:1018B0000AD00DE062690398012190476C2823D07B
:1018C00004211CE020200543626903980121904710
:1018D000A760652865604FD026DC582839D01ADC0F
:1018E000452849D012DC252834D04128B0D143E026
:1018F0006269039801219047682802D008210D43AE
:10190000E6E70120C002DEE70220DCE7462833D00C
:1019100047289DD130E05B2870D061282CD0632807
:101920006CD0642894D161E06F284FD009DC662820
:1019300022D0672820D0692826D06E2817D12EE023
:10194000EFE070284DD073286FD075284ED07828DE
:101950000DD154E0A1690F9888472528054600D18C
:101960006CE7E1690F9888476D1C00D16DE7DCE0FA
:101970000A224CE00A2252E0012023466A460F99CF
:10198000C043C046C046C5E0402128462346084320
:101990006060A80701D5002239E000223FE0E80797
:1019A00000D020E72068011D21600068290501D5CD
:1019B000067018E7290701D5068014E7A90703D5A3
:1019C000F117066041600EE706600CE740212846EB
:1019D000234608436060A80701D5082217E00822C3
:1019E0001DE0594928460840606016E0402128461D
:1019F000234608436060A807BCD5B9E715E040213D
:101A0000284608436060A80707D523461022012016
:101A10000F99C043C046C0467CE0102223460120F7
:101A20000F99C043FEF712FD74E0002163280B46B6
:101A30000191009102910D9102D05B2807D03BE00B
:101A4000E80601D40120A0600120009034E0E068A5
:101A500001210D906269039890475E2807D101200B
:101A60000190E06801210D90626903989047216917
:101A7000002906D10B4604AA8F00491C0829D3511E
:101A8000FADB002851D02169002926D00298401C99
:101A9000029062690398012190475D28F1D1019875
:101AA000002808D0002004AB8100401C5A58D243C3
:101AB00008285A50F8DB04AB2069002820791CD094
:101AC0004007029A00980D9B0092224602901F4800
:101AD0000F991DD5C046C0461CE0C117C90E091894
:101AE0004A114909930004AA9A184901411A136836
:101AF0000120884003431360CBE740072246134888
:101B00000F9902D5C046C04604E0C046C04601E079
:101B1000C046C04600280ADA401C06D10E980028AC
:101B200003D00020C04311B0F0BD0C98FBE7E907DB
:101B300002D10C99491C0C91361800200E9052E6E7
:101B4000CCCCCC0CFFFFFF7FF1F7FFFFFEFFFFFFC8
:101B500070B516460C46054600F04EF80368FF20A7
:101B60000230C05C012807D0FF2C0ED8185D002879
:101B70000BD001202C7070BDFF3332462146083354
:101B80001868C3182846984770BD0020C04370BD30
:101B900001468008081A02091018020A1018020CDF
:101BA0001018C008820012185200891A01E0401C67
:101BB0000A390A29FBD27047754600F02BFBAE4666
:101BC000050069465346C008C000854618B020B5D8
:101BD000FEF76CFB60BC00274908B6460026C0C56E
:101BE000C0C5C0C5C0C5C0C5C0C5C0C5C0C5403DD5
:101BF00049008D467047000010B500F005F8001D43
:101C000010BD00BFAD41000000487047280C002007
:101C1000F8B51F46044601230068DB02032601468F
:101C20001840072A05DB002801D017A506E017A5F4
:101C300004E0002801D016A500E016A5102081437D
:101C40002160A069C01E002FA06101D0401EA061CC
:101C50002046FEF783FE002F09D038466268A1684F
:101C60009047206A401C2062C01C206206E0206A67
:101C7000FAE762682878A1686D1C9047761EF8D252
:101C80002046FEF781FEF8BD4E414E006E616E00AB
:101C9000494E4600696E6600F7B516468AB02F4871
:101CA00078446C4603467C33C06F5A689B680DC409
:101CB0002A487844763003AC0DC80DC43720C001E3
:101CC000081837211B30FEF7A3FD05460C46803D62
:101CD0001B3C02D56442012000E00020002709904F
:101CE0000FE0E0070BD00C201C49784379443246C2
:101CF0004C394118684600F02EFA6B4607C3641051
:101D00007F1C002CEDD1154F7F442C3F15E0E807D8
:101D100011D02001C0190EC80691089307920068DF
:101D2000F04201D198190890324606A903A800F0A4
:101D300012FA03AB07C36D10641C002DE7D13246C5
:101D400069460998002803A802D000F02EFA01E0A5
:101D500000F001FA0A9B07C30DB0F0BDAC430000D0
:101D6000034640000A4610B5400D0BD00121C907BB
:101D70000F24A40200191C0364082143540D2143BD
:101D8000D20207E000210120F2E7D40F49002143ED
:101D90005200401E0029F8DADB0FDB07184310BDA4
:101DA000FFB50D46144685B04868516802F0A4FEA0
:101DB00000910190A868A16802F09EFE0291039034
:101DC000A868616802F098FE029A12188242029294
:101DD00001D2012000E00020019A0B18D21800283F
:101DE000019202D08A4202D903E08A4201D2012044
:101DF00000E000200099081800906868A16802F0CF
:101E00007BFE029A12188242029201D2012000E067
:101E10000020019A0B18D2180028019202D08A42A1
:101E200002D903E08A4201D2012000E0002000999B
:101E300008180090286821684000490040084908B7
:101E40004018EE49471814E001994000C90F0843B3
:101E50000090019802994000C90F08430190029830
:101E600003994000C90F08430290039840007F1E69
:101E7000039000980028E7DA0898002801D0E04E87
:101E800000E00026B74228DAF71BF806C00E15D08E
:101E9000029B2021091A039A8B401A430392029A4B
:101EA000019BC2408B401A430292019A009BC240A0
:101EB0008B4000991A430192C14000917A110BD0D6
:101EC0006B460320811A01D5002101E08900595891
:101ED0008700401ED951F5D537460398029900284E
:101EE00000D00120014308980291002808460CD038
:101EF000002800D001200199019A490508430121D9
:101F0000D20AC902D202019200E001210E9B0122F5
:101F1000D207012B02D0002B03D013E0002807D1F9
:101F200016E0904204D890420CD1019B0B4209D09C
:101F3000019B5918019105D10099491C009101D1CB
:101F40007F1C0092002803D0102108460020C046C4
:101F500028682168019B009A4840C10F0598C9076D
:101F600039430EC009B0F0BDFFB587B0099A089893
:101F700008995368926840688968964600220393DE
:101F800017469446089A12685300099A5B0812682B
:101F9000520052089A1A9B4BD4180A9A002A01D070
:101FA000352200E0402206920022012315460492C9
:101FB000DB07059324E0002D05D175460346039EFB
:101FC0004D1BB34109D375466646039B491B049DCF
:101FD0009841059B7519AC465F4163463B4308D069
:101FE000059B049EDD0776082E435B080496059347
:101FF00001E0521E641EC50FED0749184041521CF6
:10200000069B9A42D7DB002D04D17546039A6B1AC2
:10201000824101D203200CE0039A0B466B40424000
:10202000134303D0014303D0012002E0022000E06B
:102030000020614601910021009702910A99002930
:1020400005D06146400201436D4B019102E08007DB
:10205000002302909C423ADA1A1BD006C00E15D01B
:10206000029D2021019C091AC5408C402543029CF9
:102070008C4000D001242543019C02953D46C4407C
:102080008D4039462C43C1400194009154111DD01C
:102090006D460221002202290CD10320001B07E01B
:1020A000002804DB8600AE59002E00D00122401C1F
:1020B0000328F5DB081B02D588002A5004E08000C5
:1020C000285810438A00A850491EE3D51C460A9898
:1020D000002802980CD0002800D001200199019A14
:1020E000490508430121D20AC902D202019200E047
:1020F0000121109B0122D207012B02D0002B03D01B
:1021000013E0002807D116E0904204D890420CD189
:10211000019B0B4209D0019B5918019105D10099EF
:10212000491C009101D1641C0092002803D01021A9
:1021300008460020C04608980999019A0068096875
:1021400048400099C30F0798DB0723430360826070
:1021500041600BB0F0BD1FB5002300920A46014656
:1021600001A8FFF71DFE01AB07CB04B010BD1FB5E2
:10217000012300920A46014601A8FFF711FE01ABB8
:102180000F2407CBA402C30F4000DB074008001B4D
:10219000002900DB0020490000054908CC0A204343
:1021A00049051843D20A1143DFE71FB50023009207
:1021B0000A46014601A8FFF7D7FE01AB07CBD4E7DB
:1021C0001FB5012300920A46014601A8FFF7CCFE85
:1021D00001AB0F2407CBA402C30F4000DB0740086C
:1021E000001B002900DB0020490000054908CC0A3B
:1021F000204349051843D20A1143B6E702C0FFFF46
:10220000013C0000FF3F00000446C046C046204697
:10221000FEF720F800487047080C0020024670B511
:102220000A4392072AD11E4DEE0104C808C9541B67
:102230009443344017D0D0B2D9B2401A210601439A
:1022400010D190B299B2401A210401430AD1100270
:102250001902000A090A401A2102014302D1100E94
:10226000190E401A70BD9A42DFD010BA19BA8842CE
:1022700001D9012070BD0020C04370BD02780B78E9
:10228000401C491C002A09D09A4207D102780B78D9
:10229000401C491C002A01D09A42EFD0D01A70BDD0
:1022A0000101010101491820ABBEFEE72600020032
:1022B0007047F8B5044606A8C1C80090099D20469D
:1022C00001F0D8FA21463B4632460846009500F018
:1022D00001F8F8BD10B5029C01626400A0210C4316
:1022E000014620310C738362024942620163024954
:1022F000416310BDD95C00089D56000830B5034607
:1023000010460A4C0FE01A781202504000225B1C63
:10231000050402D54000604000E04000521CD2B2EB
:1023200080B2082AF4D3491EEDD530BD211000003B
:1023300072B6FEE7F0B5002808D0014620314A7990
:10234000022A05D00422C263002008710120F0BDDA
:10235000026813680E24A3431360426C1468FF23C1
:1023600001339C43146002681468640864001460BC
:102370000C4A5568066C1C24264001242746B740A9
:102380003D435560826CC56C5560026D002A05D0D6
:1023900015689D431560826D406D42604C71002050
:1023A0000871F0BD00000240F8B50024024620325A
:1023B0005179022903D00421C16301242DE0016871
:1023C0000B680E25AB430B6001680B685B085B0074
:1023D0000B60416C0B68FF250135AB430B60104966
:1023E0004D68066C1C231E4001231F46B7403D4329
:1023F0004D60816CC56C4D60016D002906D00E6882
:102400001D02AE430E60416D856D4D60537100211C
:102410001171816B002900D088472046F8BD00006B
:102420000000024070B5044600F0D0F80546601C7C
:1024300002D004480078241800F0C8F8401BA042DD
:10244000FAD370BD00000020F0B5002303249AE009
:102450002A4601259D402A407ED00E79B607B60F48
:10246000012E01D0022E16D186682746B4465E00A2
:10247000B646B7406646BE43B446CF687646B740D8
:102480006646374387604668AE430D79ED06ED0F2B
:102490009D40354345600D79ED43AD0708D0C568D3
:1024A0005F002646BE40B5438E68BE402E43C660E0
:1024B0000D79AD07AD0F022D0ED1DD08AD002D1841
:1024C000AC462D6A5E07F60E0F27B740BD430F6975
:1024D000B7402F4365462F6205685F002646BE4021
:1024E000B5430E79B607B60FBE402E4306604D6861
:1024F000AD03AD0F46D09E08264DB6007519AC460B
:102500002D6E9E07F60E0F27B740BD4305273F07E8
:10251000B84201D100270FE01F4FB84201D1012777
:102520000AE01E4FB84201D1022705E01C4FB84215
:1025300001D1032700E00527B7402F43154D66461C
:1025400037662D684E689543F60200D51543114F46
:102550003D607D68954300E014E04E68B60200D50A
:1025600015437D600B4D80356E684F689643BF0301
:1025700000D516436E602E684F689643FF0300D562
:1025800016432E605B1C0A681546DA4000D05FE7F0
:10259000F0BD000000180240000400500008005088
:1025A000000C00500069084000D0012070474269CB
:1025B00013460B401B0491430B4383617047002A71
:1025C00001D08161704781627047000001488068D6
:1025D00070470000000000200248816802788918D6
:1025E000816070470000002010B508480024016891
:1025F000821511430160032000F00AF8002801D081
:10260000012401E000F028F8204610BD002002401F
:1026100070B50F4E002431780546002915D07D2075
:10262000C000FEF7EBF801460A480068FEF7E6F83E
:1026300000F06CFD002808D1042D06D200222946A6
:10264000401E00F02BF8756000E00124204670BDAC
:10265000000000200C00002008B509480168012294
:102660001143016000681040009005484038C26B7B
:1026700001040A43C263C06B0840009008BD00001B
:1026800040100240002805DBC106C90E0120884029
:10269000014908607047000000E100E010B502F059
:1026A00059FA10BDBFF34F8F04490348C860BFF308
:1026B0004F8F00BFFDE700000400FA0500ED00E0C9
:1026C00010B50F4C2168032252029143014321604F
:1026D000C11FFF39FA390ED10A4806210068484364
:1026E0000949FEF78BF8401C02E0002805D0401E87
:1026F00061694905F9D4002010BD032010BD000018
:10270000007000400C00002040420F00F8B5044665
:1027100000680026664D800358D56548002740387C
:10272000C06BC00009D462484038C26B01040A4340
:10273000C263C06B0840012700905E4801688215A3
:1027400011430160FFF742FF009005E0FFF73EFFF5
:102750000099401A022825D856480068C005F5D5CA
:10276000E8690321090208400FD0616A81420CD058
:10277000E86903210902EA698843012109040A433F
:10278000EA61EA698A43EA61E861C0070FD0FFF7AE
:102790001DFF009008E0FFF719FF0099411A464815
:1027A000814201D9032609E0E8698007F3D5E86989
:1027B000032109028843616A0843E861002F05D0BC
:1027C0003B484038C26B01048A43C2632078C0078B
:1027D00005D06869616880088000084368612078D6
:1027E000C00606D56869032189028843A1680843A9
:1027F00068612088800506D56869032189048843BB
:102800006169084368612088400506D5686903212D
:1028100009058843A169084368612078800606D5C8
:102820006869032109038843E168084368612088D7
:10283000400411D56869E169800080080843686137
:102840000121E0698907884206D119484038C168EA
:10285000012212041143C1602068800210D568690A
:1028600001218905226A884310436861206A8842F1
:1028700006D10F484038C168012212061143C160D9
:102880002088000512D568690321890388432169DE
:1028900008436861012120698903884206D1044800
:1028A0004038C168012212041143C1603046F8BDAE
:1028B000401002400070004088130000F8B50F4639
:1028C000060043D04D4D28684007400FB84213D250
:1028D0002868C008C00038432860FFF777FE044628
:1028E00005E0FFF773FE011B4548814261D8286867
:1028F0004007400FB842F4D13068424C81070DD5F3
:10290000400704D5A068072109030843A060A06818
:102910000F2109028843B1680843A0603078C007DE
:1029200032D0706801280AD002280BD000280FD0BE
:102930003449403103280ED0C969890704E0216871
:10294000890301E021688901002906DB0120F8BD27
:1029500021684905F8E7096AEFE7A168C908C900D5
:102960000143A160FFF732FE009006E0FFF72EFE64
:102970000099411A224881421BD8A068382108409A
:102980007168C9008842F1D128684007400FB842F9
:1029900017D91A480168C908C90039430160FFF70F
:1029A00015FE054607E0FFF711FE411B1448814262
:1029B00001D90320F8BD114800684007400FB84214
:1029C000F1D13078400706D5A06807210903884374
:1029D000F1680843A06000F031F8A1683C22890941
:1029E0001140094A515CC906C90EC8400749086030
:1029F00007480068FFF70CFEF8BD00000020024009
:102A00008813000000100240245E00080C00002023
:102A1000040000200648074900688968064A4904FE
:102A2000490F8900515CC906C90EC84070470000B3
:102A30000C00002000100240645E000810B5204C1D
:102A4000A068204A8006400F16D0A0688006410F7B
:102A5000501001290FD0A1688906490F022912D010
:102A6000A0688006400F042823D0A0688006400F8D
:102A7000032821D0002010BD206801218004400FD0
:102A80008140104612E0E1688B07E1689B0F490620
:102A9000490F491C032B00D01046FDF7AFFEE1683B
:102AA0004904490E4843E168490F491CFDF7A6FE59
:102AB00010BD0120C00310BD7D20000210BD00002C
:102AC000001002400024F400F8B504007ED0207805
:102AD0003827C007ED4D002846D0A868E96838407F
:102AE0008907890F102802D008280BD001E003299C
:102AF00008D001206268000482420AD1296801439B
:102B0000296015E0286880032ED560680028DDD094
:102B10002AE0052301211B0489049A422A6802D174
:102B20000A432A60EAE782432A60286888432860CB
:102B3000606800280CD0FFF749FD064604E0FFF767
:102B400045FD801B642873D828688003F7D50BE007
:102B5000FFF73CFD064604E0FFF738FD801B6428C4
:102B6000F1D828688003F7D42078800769D5A86851
:102B7000E96838408A070721920FC902102802D05D
:102B8000002813D001E0022A10D0E068002846D0C7
:102B9000286888432169084328602868FF2101319B
:102BA00008432860FFF712FD06462CE02A6852050C
:102BB00002D5E268002A89D06A687F231B029A4303
:102BC00063691B021A436A60002800E08DE00ED1A1
:102BD0002868884321690843286028680121800407
:102BE000400F8140AA48FDF709FEAA490860AA489B
:102BF0000068FFF70DFD002877D122E0FFF7E6FC23
:102C0000801B02289FD828684005F7D568687F2177
:102C100009028843616909020843686011E0296874
:102C2000FF20013081432960FFF7D0FC064605E014
:102C300098E0FFF7CBFC801B022884D82868400569
:102C4000F7D42078954E00072ED5A8688006400F4F
:102C500003280AD0A0690028306A16D00121084351
:102C60003062FFF7B3FC07460BE0306A80071BD5E4
:102C7000A06900289FD017E0FFF7A8FCC01B02281E
:102C800070D8306A8007F7D50EE040084000306207
:102C9000FFF79CFC074604E0FFF798FCC01B0228E6
:102CA00060D8306A8007F7D4207840076CD5A868D0
:102CB00000278006400F042818D0E86BC00008D415
:102CC000E96B012000070143E963E96B014001273B
:102CD000009173480168C90519D401688215114330
:102CE0000160FFF773FC00900DE083E0F06980075E
:102CF0004AD5A06800287DD046E0FFF767FC009920
:102D0000401A02282ED866480068C005F5D5A1688B
:102D1000012910D004200529F16911D04908490082
:102D2000F161F1698143F161A068002816D0FFF7D5
:102D30004DFC00900EE0F06901210843F061F3E7DB
:102D40000143F161F7E7FFF741FC0099411A55484B
:102D5000814267D8F0698007F5D50EE0FFF736FCB1
:102D6000009007E05EE0FFF731FC0099411A4D4802
:102D7000814257D8F0698007F5D4002F04D0E86B62
:102D8000012109078843E863E06900287BD0A9682E
:102D90008906490F02294FD00126360602282868E5
:102DA00005D0B0432860FFF711FC04463CE0B04377
:102DB0002860FFF70BFC074604E0FFF707FCC01B89
:102DC00002282FD828688001F7D4616A206AA26A95
:102DD0000843E16A120211430843216B0843616B07
:102DE0000843E968304A11400843E86028683043E6
:102DF000286000E045E0E868012109070843E86031
:102E0000FFF7E4FB044604E0FFF7E0FB001B0228A9
:102E100008D828688001F7D535E0FFF7D7FB001BFD
:102E2000022801D90320F8BD28688001F5D4E8689C
:102E30001E490840E86026E00128F4D0E868226ACC
:102E40008107890F91421CD17021626A0140914231
:102E500017D17F21A26A090201401202914210D1CA
:102E60001F214904E26A014091420AD10721490623
:102E7000226B0140914204D1400F616B40078842B0
:102E800001D00120F8BD0020F8BD00000010024074
:102E90000024F4000C000020040000204010024038
:102EA00000700040881300008C80C111FCFFFEEE12
:102EB00070470000F8B5016804464A688868C04356
:102EC000430606D5C30704D1D3435B0601D4E16CA6
:102ED00005E0830706D4D3431B0603D4216D2046A7
:102EE0008847F8BD830603D5430601D5C305F8D44A
:102EF000D3439B06F5D4234645064033002D09DB1A
:102F00005D7F032D48D0256E042635432566CD68A8
:102F10008D680095860601274025002E07DB266E6A
:102F20003E4326668E6800960E68AE430E60C0056E
:102F300006D4206E0821084320662068806800902F
:102F4000206E0028CDD020684168E026B143416062
:102F50005F77900701D4D00722D0206841688908A4
:102F600089004160A06D104E002808D08663A06DD6
:102F7000FFF71AFA002802D0206E28432066606D01
:102F80000028AED08663606DFFF70EFA0028A8D047
:102F9000206E28432066F8BDC86888680090F8BD98
:102FA0002046FFF785FFF8BDA13D0008F8B50400F5
:102FB0000CD0606A002500280AD02561656126468C
:102FC0004036A562707F002808D00BE00120F8BDD4
:102FD0006168C81FFD38F2D0E561F0E7357720461B
:102FE00000F05CF802227277206801684023994360
:102FF00001600723E1681B02994201D9002001E02A
:10300000012000030F273F02B94202D0994200D0AD
:10301000A562FF236168053319402127A368BF0219
:103020003B40194323691340227D1943D207D20F35
:1030300011430123A2695B021A401143E26938235C
:103040001A401143226A80231A401143A26A9B014D
:103050001A40114322681160A1690422090C114031
:10306000626A10231A401143626B08231A4011430D
:103070000F23E2681B021A40114301221203104081
:103080000143206841602068C16952109143C161C9
:103090002566012070770020F8BD000010B586B0CD
:1030A000044614216846FDF7A7FB164920688842AC
:1030B00025D11548026881140A430260006808405F
:1030C000059011484038416B012211434163406B28
:1030D000694610400590E0200090022001900020F9
:1030E00002900390049005200007FFF7ADF900223D
:1030F00011461920FFF7D2FA1920FFF7C3FA06B0DC
:1031000010BD00000030014040100240094910B5D8
:10311000401E884201D9012010BD074C6061032187
:10312000081F01F017FD0020A0610720206100208A
:1031300010BD0000FFFFFF0000E000E010B50146F9
:1031400080310A79012A15D001220A7124228A606D
:10315000026813681468640864001460012252074E
:1031600093430022426600680360202088600A7151
:10317000104610BD022010BD7047704770B5044660
:1031800005468034207901281AD00120207124209E
:10319000A060286806680268520852000260286829
:1031A000826807235B069A430A438260284600F040
:1031B00073FE286806602020A0600020207170BD8A
:1031C000022070BD70B50446054680342079012880
:1031D00019D0012020712420A060286806680268A8
:1031E00052085200026028688268D200D2080A435E
:1031F0008260284600F050FE286806602020A0600B
:103200000020207170BD022070BD7047704770476C
:10321000F8B5EFF31081012282F310880268136879
:10322000FF242134A343136081F31088EFF310814E
:10323000012282F3108802689368264C2340936031
:1032400081F31088C16E01290BD1EFF310810122A7
:1032500082F31088026813681024A343136081F37B
:1032600010880568A96803464A06044600214033D1
:103270008034002A29DAEFF31082012686F31088C1
:10328000AE684027BE43AE6082F310882268002AF1
:103290000AD0114890632068FFF786F8002812D002
:1032A0002068816B88470EE0D983816503680F220F
:1032B0001A620268936908252B4393612022E26019
:1032C000C166FFF7A4FF0020F8BDD9830F228165F6
:1032D0002A62F3E7FEFFFFEF21400008704700007D
:1032E000F8B503680446D96918689A68B44D0E4663
:1032F0002E4025468035002E75D0B24EB24F164076
:10330000074037436ED0CF0706D0C70504D5012745
:103310001F622B693B432B618B0708D5D30706D06F
:10332000276802233B622B6904273B432B614B0731
:1033300008D5D30706D0276804233B622B690227F0
:103340003B432B610B0709D520230340334305D0B2
:103350002668082333622E691E432E610B0509D5AA
:10336000430107D501232668DB0233622B6920263F
:1033700033432B612B69002B42D089060AD52021CB
:103380000840C9050A40104304D0616F002901D0EC
:1033900020468847286921688968490602D428217F
:1033A000084232D0204600F04FFE2168886840066F
:1033B00027D5EFF31080012282F310888B6840221A
:1033C00093438B6080F310882868002819D07F49C8
:1033D00081632868FEF7E8FF002811D02868816B18
:1033E0000DE000E017E08E0615D5012720263F07E7
:1033F000064017403E430ED0616FB5E02046884737
:10340000F8BD2046FFF76AFFF8BD2046FFF766FFCC
:1034100000202861F8BDE66E012E7DD1CE067BD559
:10342000C60679D510221A62236898682646400697
:103430004036002849DA2968086840680004000C12
:10344000E8D0B78B8742E5D9F0830868006880062A
:1034500034D4EFF31080012181F31088196817012B
:10346000B943196080F31088EFF31080012181F3D4
:10347000108821688B685B085B008B6080F3108884
:10348000EFF31080012181F3108821688B684027B9
:10349000BB438B6080F310882020E8600020E0664A
:1034A000EFF31080012181F3108821680B689343AA
:1034B0000B6080F310882868FEF73CFF022020672D
:1034C000B08BF18B401A81B235E0B08BF18B401A92
:1034D00081B2F08B00289DD000299BD0EFF31080A3
:1034E000012686F310881E68FF272137BE431E6021
:1034F00080F31088EFF31080012383F31088236892
:103500009E68304FFF433E409E6080F3108820202D
:10351000E8600020E06600E011E06067EFF31080F3
:10352000012383F3108823681D6895431D6080F391
:103530001088022020672046FFF71EFEF8BDCE024D
:1035400008D5560206D50120000518622046FFF76F
:103550005DFEF8BD0E060BD501278026FF0506404F
:103560003A40164304D0A16F002900D046E7F8BDC9
:103570004A0614D5420612D52046EFF310810122E7
:1035800082F310881A684024A2431A6081F31088DD
:103590002021A9600021816700F04CF9F8BD0A02E2
:1035A00005D5420003D52046FFF72FFEF8BDC9011F
:1035B000FCD50028FADA2046FFF7DFFDF8BD000051
:1035C0000F08000001000010200100040D40000859
:1035D00070B5040005D025468035A868002802D0C3
:1035E00006E0012070BD00202871204600F026F87A
:1035F0002420A8602068016849084900016020462D
:1036000000F094FF0128EDD0A06A002802D02046E7
:1036100000F064FC206841680922D20291434160B5
:10362000206881682A229143816020680168012214
:1036300011430160204600F0B7FC70BDF0B591B0B9
:10364000044614216846FDF7D7F8282105A8FDF7A0
:10365000D3F82C4920682C4C0227002601258842EB
:1036600029D105A806960595FFF750F8002801D046
:10367000FEF75EFE244840300268012189030A43B8
:103680000260006808400F90606B38436063606BB5
:10369000039638400F90C020009069460197049629
:1036A00002951A48FEF7D0FE002211461B20FEF7B5
:1036B000F5FF1B2022E01649884221D1E16B012051
:1036C00040040143E163E16B01400F91606B2843CB
:1036D0006063606B0295C007C00F0F900C200090D4
:1036E000052069460197039604950007FEF7ACFE96
:1036F000002211461C20FEF7D1FF1C20FEF7C2FF5E
:1037000011B0F0BD0038014000100240000400502C
:103710000044004070B58C231B58202B01D00220A0
:1037200070BD00290BD0002A09D00124836824032E
:10373000A34206D10369002B03D1CB0701D001209E
:1037400070BD0023C3660B4B04689C420ED06368B7
:103750001B020BD5EFF31083012585F31088256834
:103760000126B6063543256083F3108800F0E4FF98
:1037700070BD0000008000407047000070B5034637
:1037800080339C68202C01D0022070BD00290BD012
:10379000002A09D0012485682403A54206D10669C0
:1037A000002E03D1CE0701D0012070BD0165014676
:1037B00040318A82CA820021816719612121996082
:1037C0000122416E5207914214D1A54202D10169F2
:1037D00000290DD013498167EFF31081012282F394
:1037E0001088006882680123DB051A43826012E0BA
:1037F0000D49F0E7A54202D1016900290FD00B491C
:103800008167EFF31081012282F31088006802685B
:1038100080231A43026081F31088002070BD0449A0
:10382000EEE7000095490008C5480008394900083E
:103830006548000810B504460A48407800280FD0B3
:10384000094841692046884708492068096809688D
:10385000884205D105484030418901221143418108
:1038600010BD0000140000203C0A0020FC080020CD
:10387000FEE7000070B51D460B460446049E114647
:103880000360221D62C2184601F0D4F93146284671
:1038900001F0D0F904486061044820610448E06107
:1038A0000448A06170BD0000BD530008DD5300084E
:1038B000CD530008ED53000810B504468189806897
:1038C0000122FEF77CFEA18801222068FEF777FE28
:1038D000A1890022A068FEF772FE022000F095F890
:1038E000A18800222068FEF76AFEA1890122A06853
:1038F000FEF765FE10BD70B504468189002580681D
:103900000122FEF75CFE0026A18801222068FEF756
:1039100056FE032000F079F86806050EA189A0681C
:10392000FEF740FE012800D10543A188002220684F
:10393000FEF745FE052000F068F8761CF6B2082E6A
:10394000E2D3284670BD10B5044681880068002285
:10395000FEF735FEA1890022A068FEF730FE0220A6
:1039600000F053F8A18801222068FEF728FEA18903
:103970000122A068FEF723FE10BD70B504468188C1
:1039800000680122FEF71BFE052000F03EF800252E
:10399000A189A068FEF706FE00280BD06D1C012649
:1039A000EDB2052DF4D9A18800222068FEF707FEAC
:1039B000304670BD0026F6E770B504460E46002579
:1039C0003006A189A06801D5012200E00022FEF79F
:1039D000F6FD7006060EA18801222068FEF7EFFDB5
:1039E000042000F012F8A18800222068FEF7E7FD0D
:1039F000A1890122A068FEF7E2FD022000F005F88F
:103A00006D1CEDB2082DDBD370BD01E0401EC0B2CD
:103A10000028FBD170470000F0B587B0142168463C
:103A2000FCF7EAFE3048416B022631434163416BAB
:103A300031400591426B04210A434263426B0A40C4
:103A40000592416B012529434163406B2A4628407A
:103A50000590E9032548FEF7B2FD05200022244920
:103A60000007FEF7ACFD03210520012249030007F2
:103A7000FEF7A5FDAF03002469461C480097029598
:103A80000194FEF7E1FCE803009002946946019579
:103A900003941648FEF7D8FC1648009005200294BF
:103AA0006946019503940007FEF7CEFC694612486B
:103AB000009602950194FEF7C7FC0320C002009017
:103AC0001120019005200294694603940007FEF737
:103AD000BBFC0520694600070097029601950394F8
:103AE000FEF7B2FC07B0F0BD001002400008005025
:103AF00011180000112000000004005010B51148FA
:103B00000F490160FF2105314160002107228160DA
:103B100012020161C26001224161520282610162AE
:103B20004162082281620723C261C362426301636A
:103B3000FFF73CFA002801D072B6FEE710BD000086
:103B4000003001403000002010B51A4818490160CB
:103B5000E1214902416000218160C1600161816110
:103B6000C1610C2201624261416208218162090344
:103B70008163FFF72DFD002801D072B6FEE700211A
:103B80000C48FFF71FFB002801D072B6FEE70021AA
:103B90000848FFF7F3FA002801D072B6FEE705489F
:103BA000FFF7CCFA002801D072B6FEE710BD000086
:103BB000003801409400002010B50D480B49016009
:103BC000E1214902416000218160C16001618161A0
:103BD000C16101620C22416242618162FFF7F8FC1F
:103BE000002801D072B6FEE710BD0000004400407E
:103BF00028010020FEE7704782600AC00021816032
:103C000041600120704770B50E460446056800F01B
:103C10005CF8002801D0002070BD6168E068491E92
:103C20000840A268314650434019FCF73BFDE0686C
:103C3000401CE060012070BDF7B5054682B0006809
:103C400000901746284600F040F8002802D00020D7
:103C500005B0F0BDE8682969401A69680C1AE8687F
:103C60004B1E1840031922468B4200D30C1A161B18
:103C7000BC4200DB3C46391B8E4200DB0E46AA6884
:103C800000995043401862430399FCF70BFDE86824
:103C90000019E8606968AA68491E0840296850430D
:103CA00040181146039B6143C9187243FCF7FAFCA4
:103CB000E8688019E860A019CAE7C1680069814214
:103CC00001D10120704700207047C1680269406837
:103CD000891A814201DB012070470020704770B5CE
:103CE0000E4604460568FFF7E8FF002801D00020D3
:103CF00070BD61682069491EA2680840504341199F
:103D00003046FCF7CFFC2069401C2061012070BDCB
:103D1000F7B5054682B00068009017462846FFF7C1
:103D2000CCFF002802D0002005B0F0BDE86829696A
:103D30006A68441A2869531E1840031921469342A1
:103D400000D3141A0E1BBC4200DB3C46391B8E42CA
:103D500000DB0E46AA68009950434118624303985D
:103D6000FCF7A0FC2869001928616968AA68491E47
:103D700008402968504341181046039B6043C0180F
:103D80007243FCF78FFC286980192861A019CBE7E2
:103D900010B50248FFF78EF810BD0000300000207B
:103DA00010B5806A002146221152C187FFF780F8C2
:103DB00010BD704710B5FEF70FFC01F0DDFD10BD22
:103DC00030B593B038216846FCF716FD0025012078
:103DD0000E950F95109540021195FEF771FC022487
:103DE000E001039000944020059008200A90800391
:103DF0000B90079400020C900894000104950D901C
:103E000009956846FEF760FE002801D072B6FEE70D
:103E100007200EA931C102210EA81195FEF74EFD13
:103E2000002801D072B6FEE713B030BD70470FB462
:103E300030B599B0054664216846FCF7DDFC1D9C51
:103E4000002C16D064216846FCF7D6FC1EAB224637
:103E500064216846FCF7BEFA04B26846FCF7B0FB82
:103E6000002809DC0120C04319B030BC08BC04B0F4
:103E700018470020C043F7E7FF216A461154401C51
:103E80001154401C1154401C82B26946284601F06E
:103E900080FE2046E8E70000F8B50446416E403455
:103EA000002915D000688168806809014D0F0A4E0D
:103EB000400F3746315C083F385CC000FCF79EFC81
:103EC0006085785D715DC000FCF798FC2085F8BDC9
:103ED00001206085FAE700001C5E000810B5018D26
:103EE000C90707D001684A6801235B049A43C36A83
:103EF0001A434A60018D890707D501684A68012382
:103F00001B049A43036B1A434A60018D490707D586
:103F100001684A6801239B049A43436B1A434A6031
:103F2000018D090707D501684A680123DB039A431D
:103F3000836B1A434A60018DC90607D502689168F0
:103F400001231B039943C36B19439160018D8906BB
:103F500007D501688A6801235B039A43036C1A43FF
:103F60008A60018D490612D503685A680121090546
:103F7000446C8A4322435A60426C8A4207D10268E9
:103F8000516803235B059943836C19435160018D8C
:103F9000090607D501684A680123DB04C06C9A430F
:103FA00002434A6010BD0000FEB50646002580367B
:103FB00004463561FEF70AFB019020680068124F45
:103FC000000709D501210097002249052046019BE1
:103FD00000F018FD00280DD12068006840070BD5BF
:103FE00001210097002289052046019B00F00AFD6F
:103FF000002801D00320FEBD2020B060F060E566FF
:10400000256735710020FEBDFFFFFF0110B5806AF6
:10401000002201464031CA83CA82FFF75FF910BD12
:1040200010B5806A00215E22115203680F221A62C5
:104030000268936908242343936120238C22135040
:10404000C166FFF7E4F810BD10B5EFF3108101224F
:1040500082F3108802681368FF242134A34313609D
:1040600081F31088EFF31081012282F31088026837
:1040700093680D4C2340936081F31088C16E012931
:104080000BD1EFF31081012282F3108802681368CC
:104090001024A343136081F3108820228C210A503E
:1040A0000021C166416710BDFEFFFFEF70B50146FC
:1040B0004031034680330C8CDD680268222D04D029
:1040C000906908210843906170BD526A856D224055
:1040D0002A80826D921C8265CA8B521ECA83CA8B4B
:1040E000002AF1D1EFF31082012484F310880468D0
:1040F0002568FF262136B543256082F31088EFF34B
:104100001082012484F310880468A5686D086D008E
:10411000A56082F310882022DA60002242670267DD
:10412000C36E012B02D0FFF727FB70BDC266EFF311
:104130001082012383F310880468256810239D43AF
:10414000256082F310880268D469E443E40600D451
:104150001362898BFFF710F870BD0000F0B50546BB
:104160000446403589B0288C02902068C6690168F1
:10417000069181680491214680310091C968222905
:1041800005D0816908221143816109B0F0BD2F8DEE
:1041900069E02068406A029AA16D10400880A06D15
:1041A000801CA065E88B401EE8832068C669710703
:1041B00031D0F10709D00699C90506D50121016260
:1041C00000980069084300990861B0070BD504986E
:1041D000C00708D021680220086200980069042105
:1041E00008430099086170070BD50498C00708D0F0
:1041F00021680420086200980069022108430099A0
:10420000086100980069002805D02046FFF766F88D
:10421000009900200861E88B002824D1EFF310807A
:10422000012181F3108821680A68FF2301339A4332
:104230000A6080F31088EFF31080012181F3108869
:1042400021688A68274B1A408A6080F31088009999
:104250002020C860002060672067E16E012928D017
:104260002046FFF789FA002F01D0B00691D4E88BE1
:1042700000288AD0298D814287D9EFF3108001214F
:1042800081F3108821688A6801231B079A438A609A
:1042900080F3108814486067EFF31080012181F3E8
:1042A000108821680A6820231A430A6080F3108866
:1042B0006BE7E066EFF31080012181F3108822683C
:1042C000136810218B43136080F310882068C26943
:1042D000D243D20600D40162A98B2046FEF74CFFE0
:1042E000C1E70000FEFFFFEFAD40000870B50146DA
:1042F0004031034680330C8CDD680268222D04D0E7
:10430000906908210843906170BD526A2240846D13
:104310002270826D521C8265CA8B521ECA83CA8B60
:10432000002AF1D1EFF31082012484F3108804688D
:104330002568FF262136B543256082F31088EFF308
:104340001082012484F310880468A5686D086D004C
:10435000A56082F310882022DA600022426702679B
:10436000C36E012B02D0FFF707FA70BDC266EFF3F0
:104370001082012383F310880468256810239D436D
:10438000256082F310880268D469E443E40600D40F
:104390001362898BFEF7F0FE70BD0000F0B5054694
:1043A0000446403589B0288C01902168CE690868A0
:1043B000069088680490204680300290C0682228C9
:1043C00005D0886908221043886109B0F0BD2F8D9F
:1043D00069E02068406A01990840A16D0870A06DED
:1043E000401CA065E88B401EE8832068C669710701
:1043F00031D0F10709D00699C90506D5012101621E
:1044000002980069084302990861B0070BD5049827
:10441000C00708D0216802200862029800690421C0
:1044200008430299086170070BD50498C00708D0AB
:104430002168042008620298006902210843029959
:10444000086102980069002805D02046FEF746FF63
:10445000029900200861E88B002824D1EFF3108036
:10446000012181F3108821680A68FF2301339A43F0
:104470000A6080F31088EFF31080012181F3108827
:1044800021688A68274B1A408A6080F31088029955
:104490002020C860002060672067E16E012928D0D5
:1044A0002046FFF769F9002F01D0B00691D4E88BC0
:1044B00000288AD0298D814287D9EFF3108001210D
:1044C00081F3108821688A6801231B079A438A6058
:1044D00080F3108814486067EFF31080012181F3A6
:1044E000108821680A6820231A430A6080F3108824
:1044F0006BE7E066EFF31080012181F310882268FA
:10450000136810218B43136080F310882068C26900
:10451000D243D20600D40162A98B2046FEF72CFEBE
:10452000C1E70000FEFFFFEFED420008F8B50446CA
:10453000016880682369E5691843636900262B4395
:104540001843734A0B68734D2B4003430B6020687C
:10455000416803231B039943E368194341602168C1
:10456000A069914201D0236A18438B686A4D2B40A1
:1045700003438B602068C16A636A09090901194312
:10458000C1626649236866488B420AD14069800748
:10459000800F09D001282CD0022828D0032816D15A
:1045A00013E060498B4201D1002111E093420ED10A
:1045B00041690320800201400AD001208002091ACB
:1045C00017D0091A13D0814201D1082100E010212F
:1045D0000120554D554FC00393423DD100290AD0CB
:1045E000022911D0042909D0082934D10BE0022175
:1045F000EEE70421ECE7FEF70DFA01E0FEF71EFA04
:10460000050001D179E00546606A4000395A284624
:104610000091FCF7F3F8676879007918814267D850
:104620003903814264D3002328461946009AFBF7D8
:104630004FFE020E090203027808114318180022E7
:1046400051413A460023FBF743FE03210902384A51
:10465000411A91424FD94BE0E269824227D10029A9
:1046600006D0022907D0042907D0082940D108E044
:10467000FEF7D0F903E0284603E0FEF7DFF9002853
:104680003BD0616A4900795AFCF7B8F8616840008C
:104690004A088018FCF7B2F80146264A10399142C0
:1046A00026D8511C01400007400F084323E0002991
:1046B00006D0022907D0042907D0082918D108E01C
:1046C000FEF7A8F903E0284603E0FEF7B7F9002853
:1046D00013D0616A4900795AFCF790F861684A087A
:1046E0008018FCF78BF80146124A1039914201D923
:1046F000012602E080B22168C860204601214030D6
:104700004185018500206067A0673046F8BD000044
:1047100000800040F369FFCFFFF4FF110038014033
:1047200040100240004400400024F400FC5D0008FA
:10473000FFFC0F00EFFF0000F0B58165014640313E
:104740008A83CA8300254567012483682403FF26E2
:10475000A34204D10369002B13D13D4B0AE07F270C
:10476000002B09D001263607B3420CD10369002B78
:1047700005D03F230B8407E00369002B01D00F8491
:1047800002E00E8400E00D84034680331D61222583
:10479000DD60EFF31083012585F310880568AE68AE
:1047A00001273E43AE6083F31088436E7D07AB4222
:1047B00029D1098D914226D88168A14202D101698F
:1047C00000291DD023494167016900290CD0EFF36E
:1047D0001081012282F3108802681368FF240134DB
:1047E0002343136081F31088EFF31081012282F3D9
:1047F00010880068826801231B071A43826023E047
:1048000015494167F0E78168A14202D10169002999
:104810000ED012494167016900290BD0EFF31081D6
:10482000012282F3108800680268FF23213309E027
:104830000B494167EFF31081012282F31088006871
:10484000026820231A43026081F310880020F0BD23
:10485000FF0100009D4300085D410008ED42000893
:10486000AD40000810B588210958212910D1014612
:104870004031CA8A002A0CD0026D03681288D20522
:10488000D20D9A62026D921C0265C88A401EC882CF
:1048900010BDEFF31081012282F3108802681368C3
:1048A0008024A343136081F31088EFF31081012269
:1048B00082F310880068026840231A43026081F383
:1048C000108810BD10B588210958212919D1014639
:1048D00040314A8D13E0CB8A002B13D00368DC698A
:1048E00024060AD5046D2488E405E40D9C62036D5A
:1048F0009B1C0365CB8A5B1ECB82521E92B2002AA0
:10490000E9D110BDEFF31081012282F31088026813
:1049100093680124E405A343936081F31088EFF3C7
:104920001081012282F310880068026840231A4334
:10493000026081F3108810BD10B588210958212923
:104940000ED101464031CA8A002A0AD0026D03689E
:1049500012789A62026D521C0265C88A401EC88293
:1049600010BDEFF31081012282F3108802681368F2
:104970008024A343136081F31088EFF31081012298
:1049800082F310880068026840231A43026081F3B2
:10499000108810BD10B588210958212917D101466A
:1049A00040314A8D11E0CB8A002B11D00368DC69BD
:1049B000240608D5046D24789C62036D5B1C036596
:1049C000CB8A5B1ECB82521E92B2002AEBD110BD65
:1049D000EFF31081012282F31088026893680124AA
:1049E000E405A343936081F31088EFF31081012263
:1049F00082F310880068026840231A43026081F342
:104A0000108810BDFFB581B00546174604468035B5
:104A10000A9E54E0701C52D0FDF7D8FD0499401A4C
:104A2000B0422FD8002E2DD020680168490746D506
:104A3000C069C043000542D401202168C002086259
:104A4000EFF31080012181F3108821680B68FF22A9
:104A5000A13293430B6080F31088EFF310800121A3
:104A600081F3108821688A68520852008A6080F3B6
:104A700010882020A860E8602861002028710320A9
:104A800005B0F0BDEFF31080012181F3108821689B
:104A90000A68FF23A1339A430A6080F31088EFF37A
:104AA0001080012181F3108821688A685208520021
:104AB0008A6080F310882020A860E860DDE7206825
:104AC000C1690298884304D00020B842A2D00020D7
:104AD000D6E70120F9E7000010B50248FEF700FC18
:104AE00010BD00009400002010B50248FEF7F8FB4E
:104AF00010BD000028010020F8B5040C8BB226463A
:104B000082B25E43104658430D0C370C3604002128
:104B10008019164679416E43370C360480192646B3
:104B200079416E438919F8BD4900CA020243100059
:104B300000D004204A0D01D001221043044A490D3F
:104B4000914201D102210843012800D1052070477C
:104B5000FF0700008307FF22DB0E9A408907090E3A
:104B60009940002808DB830809489B001B18186837
:104B700090430843186070470007000F0838830807
:104B800004489B001B18D86990430843D8617047BC
:104B900000E400E000ED00E030380A2801D20120F6
:104BA00070470020704770B502680446002A12D092
:104BB000606840186060A16888420CD3207C00289F
:104BC00009D0012807D00025022805D0032802D1EA
:104BD000E0689047256070BDE0689047656070BDF3
:104BE00070B50168044600290CD0A2686068904244
:104BF00008D3207C0025002805D0012802D1E068D8
:104C00008847256070BDE0688847656070BD30B535
:104C1000039D042A02D30020C04330BD0274C56046
:104C20000024816018C0204630BD00687047002114
:104C30000160704733B585B06846048B1120019040
:104C40000020059D02900390009469462846FDF7D8
:104C5000FBFB012221462846FDF7B1FC07B030BD21
:104C600070B53B4D8AB0002428206043401900F005
:104C700031FE641C082CF7DB802674003548029056
:104C8000011B0219009123460396019432493348CF
:104C900000F0D8FD04213248FBF7ACFD304D31A2C5
:104CA0002D1F2B780421281D00F056FE2E4A291DA9
:104CB0002EA000F0C5FC324808902B482F490991DE
:104CC00028384269016907920691C168806804909A
:104CD0002C480591011B021902902048009123469F
:104CE000039601942849C03000F072FD1E496422E9
:104CF0002839174800F06EFC0A2115480291283027
:104D0000224A164900920190214B224A183122482A
:104D100000F0FAFD21482249426A001B90470F48E3
:104D200080308169803888471B4C683CA169A01B92
:104D300088472046403081880022206CFDF73FFCE8
:104D40000120687017A000F09BFC0AB070BD000045
:104D5000BC070020BC02002028010020FC08002025
:104D60001800002025642E00CC5E000825736162C7
:104D70006F75742822257322290D0A00E556000854
:104D800025570008BC050020940000209953000816
:104D900041560008F1520008A40A0020A40B00208C
:104DA00001510008696E697469616C20636F6D70F0
:104DB0006C6574652C2074797065202268656C7050
:104DC0002220666F722068656C700A001FB5002093
:104DD0000849039003C9019007480291406A009076
:104DE000054818300EC80548FDF763FA00F0EEF9E3
:104DF0001FBD0000E05F0008A45E0008D00B00208B
:104E0000F0B5624C07468DB020780D460090052223
:104E10005FA13846FBF7F6FB002831D004225EA1E3
:104E20003846FBF7EFFB002833D008225CA1384658
:104E3000FBF7E8FB002831D001AB02AA5BA13846A2
:104E4000FBF7E4FAFF26013602282AD002AA5CA169
:104E50003846FBF7DBFA01283AD001AB02AA5CA185
:104E60003846FBF7D3FA5E4E022841D009225DA1F5
:104E70003846FBF7C7FB00287CD000200DB0F0BD02
:104E80005B4A5CA00099A8471E21322000F080FBFD
:104E90001AE057495DA01331009A08E0FDF702FCC3
:104EA00012E00298FF2804DD32465DA00099A84771
:104EB0000AE080B2019900F05DFB019B029A009923
:104EC000002803D060A0A8470120D7E765A0FAE733
:104ED0000298FF2803DD324669A00099E7E780B217
:104EE00001A900F037FB70A0019B029A0099EAE744
:104EF00002990020C2B2A2709200B2588A4202D037
:104F0000401C0728F6DB01990020C2B2E270920033
:104F1000B2588A4202D0401C0728F6DB202103A8A1
:104F2000FBF76AFCA07869468876E078C876FDF7DA
:104F30004DFB69460877FDF749FB000A694648774B
:104F4000FDF744FB000C69468877AA2008A9C872BF
:104F50005C4820230721076B03AA8902B847E07841
:104F600080003358A0788000325800E002E056A05C
:104F70000099A8E700F02AF9E078009980003358FA
:104F8000A0788000325857A09DE700001400002050
:104F900061626F757400000068656C70000000004D
:104FA0007265737461727420000000007265672E70
:104FB0007772697465202564202564200000000054
:104FC0007265672E72656164202564200000000010
:104FD000626175642E736574202564202564000069
:104FE000845E0008626175642E67657420000000AD
:104FF000CC5E00082B6F6B4025642E61626F757468
:105000002822257322290D0A000000002573202B79
:105010006F6B4025642E68656C7028290D0A0000AE
:105020002B6572724025642E7265672E77726974E3
:10503000652822616464726573735B302E2E25646B
:105040005D22290D0A0000002B6572724025642E36
:105050007265672E77726974652825642C2564292A
:105060000D0A00002B6F6B4025642E7265672E774A
:10507000726974652825642C2564290D0A000000D6
:105080002B6572724025642E7265672E72656164AD
:105090002822616464726573735B302E2E25645D13
:1050A00022290D0A000000002B6F6B4025642E7230
:1050B00065672E726561642825642C2564290D0AB4
:1050C00000000000D00B00202B6F6B4025642E6287
:1050D0006175642E7365742825642C2564290D0A76
:1050E000000000002B6F6B4025642E626175642EFA
:1050F0006765742825642C2564290D0A00000000CA
:1051000010B51146FFF77CFE10BD70B5FF25C0B08D
:105110000446013529466846FBF76EFB6068C168A6
:105120000269891A00291DDD2369002B1AD02A463D
:1051300069469847060015D00025A8000019436964
:10514000002B05D0F1B26846A2689847002809D123
:105150006D1CEDB2402DF0D3E268002A02D031463A
:105160006846904740B070BD30B50C4C00232246D5
:105170009D002D186D698D420ED0A24202D1002DE6
:1051800000D19AB25B1CFF2BF2DDA24204D0920048
:1051900010184161012030BD002030BDFFFF00002C
:1051A0000020704738B500900188FF300130406919
:1051B000024BC4690022A04738BD00000B51000813
:1051C000FF3001304069016A0847000010B588B01F
:1051D00020216846FBF710FB0D4820230721446B74
:1051E0006A468902A0476846C07FAA280CD1694652
:1051F0008B7B084804228370C97BC170072B00D3C6
:105200008270072900D3C270002008B010BD0000D2
:10521000D00B002014000020F7B5064682B0002015
:105220000190F0680D463169401A002804DD002D18
:1052300002D00499002909D1002005B0F0BD29460B
:105240003046FEF74CFDF0683169401A04998842F7
:10525000F5DC0A4629463046FEF75AFD074600208F
:1052600030610446F06031E028192049FBF793F9DA
:105270000090002829D01D48FBF7A2F9E919091A66
:105280000098814224D31948FBF79AF92919009A0A
:105290000191511A4018009020183A1A002A03DD93
:1052A00041193046FEF7C8FC002C19DD049900981E
:1052B000884201DD0A4600E0024628460199FBF7D4
:1052C00055FA0099002068540AE0641CBC42CBDB0C
:1052D0003A4629463046FEF7AFFC01980028ACD08C
:1052E0002846FBF76DF980B2A7E700001000002008
:1052F00010B5FFF791FF10BDFFB583B00398C168EB
:1053000000690F1A002F0DDD059800280AD00698B5
:10531000002807D000260498FBF752F9741E0025D8
:1053200001901FE0002007B0F0BD69460398FEF72A
:10533000D6FC69460398FEF766FC601C11D1049800
:10534000815D68460078814201D1761C05E00499B0
:1053500000260978814200D101260198864200D1B9
:105360006C1C6D1CBD42E0DB601C03D00698261A45
:10537000002508E00020C043D5E769460398FEF702
:10538000AEFC641E6D1CB542F7DB224605990398FE
:10539000FEF7BEFCC7E7000010B50246024903A0B5
:1053A00000F04EF910BD0000D25F00083C257320CC
:1053B000425546463A2573203E0000001CB5049C29
:1053C00000930194002300F019F81CBD1CB5049C47
:1053D00000930194012300F011F81CBD1CB5049C3E
:1053E00000930194002300F072F81CBD1CB5049CCE
:1053F00000930194012300F06AF81CBDFFB581B051
:10540000044615460B9EFEF757FA20460299FEF712
:10541000D3FA2046FEF7B1FA0027FF43012824D033
:105420000498002808D0290A2046FEF7C5FA20462D
:10543000FEF7A3FA012818D0E9B22046FEF7BCFA1D
:105440002046FEF79AFA01280FD02046FEF734FADC
:105450000299012001432046FEF7AEFA2046FEF7EE
:105460008CFA012801D000252AE02046FEF76BFACD
:10547000384605B0F0BDFEF73EFA0A994855701E51
:105480008542A189A06809DA0022FDF798F8A18871
:1054900001222068FDF793F8062008E00122FDF7BD
:1054A0008EF8A18801222068FDF789F80520FEF713
:1054B000ACFAA18800222068FDF781F86D1CEDB2DE
:1054C000B5422046D7D3FEF73EFA0020D1E7FFB51C
:1054D00081B00F46054614460B9EFEF7EDF939469E
:1054E0002846FEF769FA2846FEF747FA0027FF43E9
:1054F00001282AD00498002808D0210A2846FEF75F
:105500005BFA2846FEF739FA01281ED0E1B2284698
:10551000FEF752FA2846FEF730FA012815D000248B
:105520000BE00A98015D2846FEF746FA2846FEF78A
:1055300024FA012809D0641CE4B2B442F1D328460D
:10554000FEF701FA002005B0F0BD2846FEF7FBF992
:105550003846F8E70A4603218000C902401881B2A4
:1055600030B403480423446BA44630BC60470000B9
:10557000D00B002013B503218000C902401881B26E
:1055800002480423046B01AAA0471CBDD00B0020D5
:1055900010B5034A9080084600F028F810BD0000BE
:1055A0002000002010B50A4CE06881880068FCF7F4
:1055B000FEFFA088012802D9401EA08010BD01284E
:1055C000FCD10020A080608800F010F810BD000021
:1055D0002000002010B5044CE160A060104600F0EF
:1055E00005F8608010BD00002000002038B5084C90
:1055F0000A28208001D80A20208000200090A0687E
:10560000044BC56900222188A847208838BD0000C6
:1056100020000020A5550008FCF7E6FFFEF7D0FBB0
:10562000FEF7FAF9FEF76AFAFEF78EFAFEF7C4FA09
:10563000FFF7CCFBFFF714FB00F0B4F9FCE7000028
:105640000FB410B5FF24C0B0013421466846FBF703
:10565000D3F843AB21466846429AFAF7BBFE00B244
:10566000002805DD82B205486946036B80389847FB
:1056700040B010BC08BC04B0184700007C090020F2
:1056800010B50446FAF79CFF82B203482146036B2B
:105690008038984710BD00007C090020F8B5046AE6
:1056A0001546002B07D0CA18466A521EB24205D3CF
:1056B0000120C043F8BD0020C043F8BD01273F03CF
:1056C000DAB22030BE42009205D3007B0A462B4658
:1056D0000146E66903E0CAB2017B66692B462046B3
:1056E000B047F8BD10B50D494978002913D00C49D1
:1056F00000680968096888420DD109480022C03055
:1057000081884038006CFCF75AFF054840304189D9
:10571000012211434181002010BD0000140000202F
:10572000BC09002070B50E484078002814D00D4DFB
:105730002C46403CA989A06CFCF734FF01280CD012
:10574000A9880122206CFCF73AFFA989A06CFCF71C
:1057500029FF0128F9D1002070BD0020C04370BD91
:10576000140000207C0A0020AC231B581847A421F9
:1057700009580847A0210958084710B514460029C0
:1057800007D0002C05D0B422135822469847204653
:1057900010BD002010BD0FB430B5FF25C1B00446C8
:1057A000013529466846FBF727F8459A002A0AD0B2
:1057B00046AB29466846FAF70DFE82B2B42003597B
:1057C00069462046984741B030BC08BC04B0184731
:1057D000FFB585B00446C021129F159E149DFBF7AE
:1057E0000BF82046C0301399021D076062C225469F
:1057F000818880350122286CFCF7E1FE0EA80FC8D5
:105800006F460FC7204606AC0ECC00F01BF816986A
:10581000286117986861064868650648A8650648C3
:10582000E865064828660648686609B0F0BD0000CD
:105830006F570008695700087B5700089757000802
:1058400075570008F8B5069F079E089D099CC7621A
:105850000160014640310E8005632D1945634C807F
:1058600042640B81026B8263426BC2630023024677
:105870008032536113610D4B13620D4B53620D4B1C
:1058800093620D4BD3620D4B53630D4B13630D4B62
:10589000D3630D4B93630D4B93610D4BD3610B8918
:1058A000416C0122001DFEF7A7F9F8BD255C000838
:1058B0001D5B0008055B00081D5A0008715C0008AC
:1058C000935B00082F3E00080D5A0008C55B0008D6
:1058D000055C000810B504462821FAF78DFF05483D
:1058E00060610548A0610548E061054820620548FF
:1058F000606210BDA74B0008E14B00080F4C000888
:105900002F4C00082B4C0008F8B50D46FF211F4610
:10591000164604462D31FAF76FFFE11DF931079A5B
:105920004A61089A2280A7606560069A2661064847
:10593000E260C86105480862054848620548886217
:105940002046FFF72FFCF8BDA5510008C151000803
:1059500069510008A15100080FB410B5049A002A3B
:1059600007D005ABFAF736FD00B210BC08BC04B096
:1059700018470020C043F8E770B5084D00242820E0
:1059800060434019426901219047641CE4B2082C2D
:10599000F5D303480188491C018070BDBC07002075
:1059A0001C000020F8B514480078002822D0134EBF
:1059B0003046316A80388847114D2846696E8038F4
:1059C0008847104F002428206043C0198169884708
:1059D000641CE4B2082CF6D30B4C2088042809D3AD
:1059E0000648716A803888470548696D803888475D
:1059F00000202080F8BD0000150000207C09002058
:105A00003C0A0020BC0700201C00002001694069FE
:105A1000814201D10120704700207047F7B506464A
:105A2000406A82B00C46B16A401A082865DB3046ED
:105A300018302146049A0090FEF76AF902B200205D
:105A4000B06270620BE0215CBA2906D121184B7854
:105A5000982B02D18978ED2909D0401C80B2811C95
:105A60009142F0DB21460098FEF7E6F845E0271862
:105A7000401D80B2002FF5D00BE0215CCD2906D16E
:105A800021184B78AB2B02D18978892905D0401C8D
:105A900080B2811C9142F0DBE4E72518E2D0A01827
:105AA000401BC01E02B2002A03DDE91C0098FEF76D
:105AB000C3F8691E0978A81E0078090208430090FF
:105AC000E81B401F85B20E4A2946F81CFCF716FC5D
:105AD00001460098884210D10498854201D30246BD
